{
  "contractName": "TaskAllocation",
  "abi": [
    {
      "inputs": [],
      "stateMutability": "nonpayable",
      "type": "constructor"
    },
    {
      "anonymous": false,
      "inputs": [
        {
          "indexed": false,
          "internalType": "uint256",
          "name": "taskId",
          "type": "uint256"
        },
        {
          "indexed": false,
          "internalType": "uint256",
          "name": "timeRequired",
          "type": "uint256"
        }
      ],
      "name": "TaskAdded",
      "type": "event"
    },
    {
      "anonymous": false,
      "inputs": [
        {
          "indexed": false,
          "internalType": "uint256",
          "name": "taskId",
          "type": "uint256"
        },
        {
          "indexed": false,
          "internalType": "address",
          "name": "worker",
          "type": "address"
        }
      ],
      "name": "TaskAllocated",
      "type": "event"
    },
    {
      "anonymous": false,
      "inputs": [
        {
          "indexed": false,
          "internalType": "uint256",
          "name": "workerId",
          "type": "uint256"
        },
        {
          "indexed": false,
          "internalType": "address",
          "name": "wallet",
          "type": "address"
        }
      ],
      "name": "WorkerRegistered",
      "type": "event"
    },
    {
      "stateMutability": "payable",
      "type": "fallback",
      "payable": true
    },
    {
      "inputs": [],
      "name": "admin",
      "outputs": [
        {
          "internalType": "address",
          "name": "",
          "type": "address"
        }
      ],
      "stateMutability": "view",
      "type": "function",
      "constant": true
    },
    {
      "inputs": [
        {
          "internalType": "uint256",
          "name": "",
          "type": "uint256"
        }
      ],
      "name": "tasks",
      "outputs": [
        {
          "internalType": "uint256",
          "name": "timeRequired",
          "type": "uint256"
        },
        {
          "internalType": "uint256",
          "name": "expertiseLevel",
          "type": "uint256"
        },
        {
          "internalType": "uint256",
          "name": "hourlyWage",
          "type": "uint256"
        },
        {
          "internalType": "uint256",
          "name": "deadline",
          "type": "uint256"
        },
        {
          "internalType": "bool",
          "name": "isDivisible",
          "type": "bool"
        },
        {
          "internalType": "bool",
          "name": "isAllocated",
          "type": "bool"
        },
        {
          "internalType": "address",
          "name": "assignedWorker",
          "type": "address"
        }
      ],
      "stateMutability": "view",
      "type": "function",
      "constant": true
    },
    {
      "inputs": [],
      "name": "totalTasks",
      "outputs": [
        {
          "internalType": "uint256",
          "name": "",
          "type": "uint256"
        }
      ],
      "stateMutability": "view",
      "type": "function",
      "constant": true
    },
    {
      "inputs": [],
      "name": "totalWorkers",
      "outputs": [
        {
          "internalType": "uint256",
          "name": "",
          "type": "uint256"
        }
      ],
      "stateMutability": "view",
      "type": "function",
      "constant": true
    },
    {
      "inputs": [
        {
          "internalType": "uint256",
          "name": "",
          "type": "uint256"
        }
      ],
      "name": "workers",
      "outputs": [
        {
          "internalType": "uint256",
          "name": "availableHours",
          "type": "uint256"
        },
        {
          "internalType": "uint256",
          "name": "expertiseLevel",
          "type": "uint256"
        },
        {
          "internalType": "uint256",
          "name": "minHourlyWage",
          "type": "uint256"
        },
        {
          "internalType": "address",
          "name": "wallet",
          "type": "address"
        },
        {
          "internalType": "bool",
          "name": "isRegistered",
          "type": "bool"
        }
      ],
      "stateMutability": "view",
      "type": "function",
      "constant": true
    },
    {
      "stateMutability": "payable",
      "type": "receive",
      "payable": true
    },
    {
      "inputs": [
        {
          "internalType": "uint256",
          "name": "_availableHours",
          "type": "uint256"
        },
        {
          "internalType": "uint256",
          "name": "_expertiseLevel",
          "type": "uint256"
        },
        {
          "internalType": "uint256",
          "name": "_minHourlyWage",
          "type": "uint256"
        }
      ],
      "name": "registerWorker",
      "outputs": [],
      "stateMutability": "nonpayable",
      "type": "function"
    },
    {
      "inputs": [
        {
          "internalType": "uint256",
          "name": "_timeRequired",
          "type": "uint256"
        },
        {
          "internalType": "uint256",
          "name": "_expertiseLevel",
          "type": "uint256"
        },
        {
          "internalType": "uint256",
          "name": "_hourlyWage",
          "type": "uint256"
        },
        {
          "internalType": "uint256",
          "name": "_deadline",
          "type": "uint256"
        },
        {
          "internalType": "bool",
          "name": "_isDivisible",
          "type": "bool"
        }
      ],
      "name": "addTask",
      "outputs": [],
      "stateMutability": "nonpayable",
      "type": "function"
    },
    {
      "inputs": [
        {
          "internalType": "uint256",
          "name": "taskId",
          "type": "uint256"
        },
        {
          "internalType": "uint256",
          "name": "workerId",
          "type": "uint256"
        }
      ],
      "name": "allocateTask",
      "outputs": [],
      "stateMutability": "nonpayable",
      "type": "function"
    },
    {
      "inputs": [
        {
          "internalType": "uint256",
          "name": "taskId",
          "type": "uint256"
        }
      ],
      "name": "completeTask",
      "outputs": [],
      "stateMutability": "nonpayable",
      "type": "function"
    },
    {
      "inputs": [
        {
          "internalType": "uint256",
          "name": "workerId",
          "type": "uint256"
        }
      ],
      "name": "getWorkerDetails",
      "outputs": [
        {
          "components": [
            {
              "internalType": "uint256",
              "name": "availableHours",
              "type": "uint256"
            },
            {
              "internalType": "uint256",
              "name": "expertiseLevel",
              "type": "uint256"
            },
            {
              "internalType": "uint256",
              "name": "minHourlyWage",
              "type": "uint256"
            },
            {
              "internalType": "address",
              "name": "wallet",
              "type": "address"
            },
            {
              "internalType": "bool",
              "name": "isRegistered",
              "type": "bool"
            }
          ],
          "internalType": "struct TaskAllocation.Worker",
          "name": "",
          "type": "tuple"
        }
      ],
      "stateMutability": "view",
      "type": "function",
      "constant": true
    },
    {
      "inputs": [
        {
          "internalType": "uint256",
          "name": "taskId",
          "type": "uint256"
        }
      ],
      "name": "getTaskDetails",
      "outputs": [
        {
          "components": [
            {
              "internalType": "uint256",
              "name": "timeRequired",
              "type": "uint256"
            },
            {
              "internalType": "uint256",
              "name": "expertiseLevel",
              "type": "uint256"
            },
            {
              "internalType": "uint256",
              "name": "hourlyWage",
              "type": "uint256"
            },
            {
              "internalType": "uint256",
              "name": "deadline",
              "type": "uint256"
            },
            {
              "internalType": "bool",
              "name": "isDivisible",
              "type": "bool"
            },
            {
              "internalType": "bool",
              "name": "isAllocated",
              "type": "bool"
            },
            {
              "internalType": "address",
              "name": "assignedWorker",
              "type": "address"
            }
          ],
          "internalType": "struct TaskAllocation.Task",
          "name": "",
          "type": "tuple"
        }
      ],
      "stateMutability": "view",
      "type": "function",
      "constant": true
    }
  ],
  "bytecode": "0x608060405234801561001057600080fd5b50336000806101000a81548173ffffffffffffffffffffffffffffffffffffffff021916908373ffffffffffffffffffffffffffffffffffffffff160217905550611801806100606000396000f3fe6080604052600436106100a05760003560e01c80638d977672116100645780638d977672146101a0578063b64d0830146101e3578063d22c81e51461020c578063e1e2955814610237578063f1a22dc214610260578063f851a440146102a1576100a7565b8063381737b8146100a95780633888b9d5146100d457806374e001ca146101115780637a91e8311461014e5780637bec14cc14610177576100a7565b366100a757005b005b3480156100b557600080fd5b506100be6102cc565b6040516100cb9190610e3e565b60405180910390f35b3480156100e057600080fd5b506100fb60048036038101906100f69190610e8a565b6102d2565b6040516101089190610fb0565b60405180910390f35b34801561011d57600080fd5b5061013860048036038101906101339190610e8a565b6103b3565b6040516101459190611033565b60405180910390f35b34801561015a57600080fd5b506101756004803603810190610170919061104e565b61046f565b005b34801561018357600080fd5b5061019e600480360381019061019991906110cd565b6105a4565b005b3480156101ac57600080fd5b506101c760048036038101906101c29190610e8a565b6107a2565b6040516101da9796959493929190611166565b60405180910390f35b3480156101ef57600080fd5b5061020a600480360381019061020591906111d5565b61081e565b005b34801561021857600080fd5b50610221610b64565b60405161022e9190610e3e565b60405180910390f35b34801561024357600080fd5b5061025e60048036038101906102599190610e8a565b610b6a565b005b34801561026c57600080fd5b5061028760048036038101906102829190610e8a565b610d00565b604051610298959493929190611215565b60405180910390f35b3480156102ad57600080fd5b506102b6610d63565b6040516102c39190611268565b60405180910390f35b60025481565b6102da610d87565b600460008381526020019081526020016000206040518060e0016040529081600082015481526020016001820154815260200160028201548152602001600382015481526020016004820160009054906101000a900460ff161515151581526020016004820160019054906101000a900460ff161515151581526020016004820160029054906101000a900473ffffffffffffffffffffffffffffffffffffffff1673ffffffffffffffffffffffffffffffffffffffff1673ffffffffffffffffffffffffffffffffffffffff16815250509050919050565b6103bb610dde565b600360008381526020019081526020016000206040518060a00160405290816000820154815260200160018201548152602001600282015481526020016003820160009054906101000a900473ffffffffffffffffffffffffffffffffffffffff1673ffffffffffffffffffffffffffffffffffffffff1673ffffffffffffffffffffffffffffffffffffffff1681526020016003820160149054906101000a900460ff1615151515815250509050919050565b60026000815480929190610482906112b2565b91905055506040518060a001604052808481526020018381526020018281526020013373ffffffffffffffffffffffffffffffffffffffff1681526020016001151581525060036000600254815260200190815260200160002060008201518160000155602082015181600101556040820151816002015560608201518160030160006101000a81548173ffffffffffffffffffffffffffffffffffffffff021916908373ffffffffffffffffffffffffffffffffffffffff16021790555060808201518160030160146101000a81548160ff0219169083151502179055509050507f19722814ba41ad5b14adc068280d562e1e724a09771a05f46b37d71782b1459b600254336040516105979291906112fa565b60405180910390a1505050565b60008054906101000a900473ffffffffffffffffffffffffffffffffffffffff1673ffffffffffffffffffffffffffffffffffffffff163373ffffffffffffffffffffffffffffffffffffffff1614610632576040517f08c379a0000000000000000000000000000000000000000000000000000000008152600401610629906113a6565b60405180910390fd5b60016000815480929190610645906112b2565b91905055506040518060e001604052808681526020018581526020018481526020018381526020018215158152602001600015158152602001600073ffffffffffffffffffffffffffffffffffffffff168152506004600060015481526020019081526020016000206000820151816000015560208201518160010155604082015181600201556060820151816003015560808201518160040160006101000a81548160ff02191690831515021790555060a08201518160040160016101000a81548160ff02191690831515021790555060c08201518160040160026101000a81548173ffffffffffffffffffffffffffffffffffffffff021916908373ffffffffffffffffffffffffffffffffffffffff1602179055509050507f8baba1305291ce5789b342eddc456ab24d87be77eba1ead28ecabf369ffa01de600154866040516107939291906113c6565b60405180910390a15050505050565b60046020528060005260406000206000915090508060000154908060010154908060020154908060030154908060040160009054906101000a900460ff16908060040160019054906101000a900460ff16908060040160029054906101000a900473ffffffffffffffffffffffffffffffffffffffff16905087565b60008054906101000a900473ffffffffffffffffffffffffffffffffffffffff1673ffffffffffffffffffffffffffffffffffffffff163373ffffffffffffffffffffffffffffffffffffffff16146108ac576040517f08c379a00000000000000000000000000000000000000000000000000000000081526004016108a3906113a6565b60405180910390fd5b600060046000848152602001908152602001600020905060006003600084815260200190815260200160002090508160040160019054906101000a900460ff161561092c576040517f08c379a00000000000000000000000000000000000000000000000000000000081526004016109239061143b565b60405180910390fd5b8060030160149054906101000a900460ff1661097d576040517f08c379a0000000000000000000000000000000000000000000000000000000008152600401610974906114a7565b60405180910390fd5b8160000154816000015410156109c8576040517f08c379a00000000000000000000000000000000000000000000000000000000081526004016109bf90611539565b60405180910390fd5b816001015481600101541015610a13576040517f08c379a0000000000000000000000000000000000000000000000000000000008152600401610a0a906115cb565b60405180910390fd5b806002015482600201541015610a5e576040517f08c379a0000000000000000000000000000000000000000000000000000000008152600401610a559061165d565b60405180910390fd5b60018260040160016101000a81548160ff0219169083151502179055508060030160009054906101000a900473ffffffffffffffffffffffffffffffffffffffff168260040160026101000a81548173ffffffffffffffffffffffffffffffffffffffff021916908373ffffffffffffffffffffffffffffffffffffffff1602179055508160000154816000016000828254610afa919061167d565b925050819055507f4b2a4889ed68f9f3891636503ef61910dec6b0eb87150aa896fc16340aedb6b3848260030160009054906101000a900473ffffffffffffffffffffffffffffffffffffffff16604051610b569291906112fa565b60405180910390a150505050565b60015481565b803373ffffffffffffffffffffffffffffffffffffffff166003600083815260200190815260200160002060030160009054906101000a900473ffffffffffffffffffffffffffffffffffffffff1673ffffffffffffffffffffffffffffffffffffffff1614610c0f576040517f08c379a0000000000000000000000000000000000000000000000000000000008152600401610c06906116fd565b60405180910390fd5b60006004600084815260200190815260200160002090508060040160019054906101000a900460ff16610c77576040517f08c379a0000000000000000000000000000000000000000000000000000000008152600401610c6e90611769565b60405180910390fd5b600081600201548260000154610c8d9190611789565b90508160040160029054906101000a900473ffffffffffffffffffffffffffffffffffffffff1673ffffffffffffffffffffffffffffffffffffffff166108fc829081150290604051600060405180830381858888f19350505050158015610cf9573d6000803e3d6000fd5b5050505050565b60036020528060005260406000206000915090508060000154908060010154908060020154908060030160009054906101000a900473ffffffffffffffffffffffffffffffffffffffff16908060030160149054906101000a900460ff16905085565b60008054906101000a900473ffffffffffffffffffffffffffffffffffffffff1681565b6040518060e0016040528060008152602001600081526020016000815260200160008152602001600015158152602001600015158152602001600073ffffffffffffffffffffffffffffffffffffffff1681525090565b6040518060a00160405280600081526020016000815260200160008152602001600073ffffffffffffffffffffffffffffffffffffffff1681526020016000151581525090565b6000819050919050565b610e3881610e25565b82525050565b6000602082019050610e536000830184610e2f565b92915050565b600080fd5b610e6781610e25565b8114610e7257600080fd5b50565b600081359050610e8481610e5e565b92915050565b600060208284031215610ea057610e9f610e59565b5b6000610eae84828501610e75565b91505092915050565b610ec081610e25565b82525050565b60008115159050919050565b610edb81610ec6565b82525050565b600073ffffffffffffffffffffffffffffffffffffffff82169050919050565b6000610f0c82610ee1565b9050919050565b610f1c81610f01565b82525050565b60e082016000820151610f386000850182610eb7565b506020820151610f4b6020850182610eb7565b506040820151610f5e6040850182610eb7565b506060820151610f716060850182610eb7565b506080820151610f846080850182610ed2565b5060a0820151610f9760a0850182610ed2565b5060c0820151610faa60c0850182610f13565b50505050565b600060e082019050610fc56000830184610f22565b92915050565b60a082016000820151610fe16000850182610eb7565b506020820151610ff46020850182610eb7565b5060408201516110076040850182610eb7565b50606082015161101a6060850182610f13565b50608082015161102d6080850182610ed2565b50505050565b600060a0820190506110486000830184610fcb565b92915050565b60008060006060848603121561106757611066610e59565b5b600061107586828701610e75565b935050602061108686828701610e75565b925050604061109786828701610e75565b9150509250925092565b6110aa81610ec6565b81146110b557600080fd5b50565b6000813590506110c7816110a1565b92915050565b600080600080600060a086880312156110e9576110e8610e59565b5b60006110f788828901610e75565b955050602061110888828901610e75565b945050604061111988828901610e75565b935050606061112a88828901610e75565b925050608061113b888289016110b8565b9150509295509295909350565b61115181610ec6565b82525050565b61116081610f01565b82525050565b600060e08201905061117b600083018a610e2f565b6111886020830189610e2f565b6111956040830188610e2f565b6111a26060830187610e2f565b6111af6080830186611148565b6111bc60a0830185611148565b6111c960c0830184611157565b98975050505050505050565b600080604083850312156111ec576111eb610e59565b5b60006111fa85828601610e75565b925050602061120b85828601610e75565b9150509250929050565b600060a08201905061122a6000830188610e2f565b6112376020830187610e2f565b6112446040830186610e2f565b6112516060830185611157565b61125e6080830184611148565b9695505050505050565b600060208201905061127d6000830184611157565b92915050565b7f4e487b7100000000000000000000000000000000000000000000000000000000600052601160045260246000fd5b60006112bd82610e25565b91507fffffffffffffffffffffffffffffffffffffffffffffffffffffffffffffffff82036112ef576112ee611283565b5b600182019050919050565b600060408201905061130f6000830185610e2f565b61131c6020830184611157565b9392505050565b600082825260208201905092915050565b7f4f6e6c792061646d696e2063616e2063616c6c20746869732066756e6374696f60008201527f6e00000000000000000000000000000000000000000000000000000000000000602082015250565b6000611390602183611323565b915061139b82611334565b604082019050919050565b600060208201905081810360008301526113bf81611383565b9050919050565b60006040820190506113db6000830185610e2f565b6113e86020830184610e2f565b9392505050565b7f5461736b20616c726561647920616c6c6f636174656400000000000000000000600082015250565b6000611425601683611323565b9150611430826113ef565b602082019050919050565b6000602082019050818103600083015261145481611418565b9050919050565b7f576f726b6572206973206e6f7420726567697374657265640000000000000000600082015250565b6000611491601883611323565b915061149c8261145b565b602082019050919050565b600060208201905081810360008301526114c081611484565b9050919050565b7f576f726b657220646f6573206e6f74206861766520656e6f756768206176616960008201527f6c61626c6520686f757273000000000000000000000000000000000000000000602082015250565b6000611523602b83611323565b915061152e826114c7565b604082019050919050565b6000602082019050818103600083015261155281611516565b9050919050565b7f576f726b657220646f6573206e6f74206861766520726571756972656420657860008201527f70657274697365206c6576656c00000000000000000000000000000000000000602082015250565b60006115b5602d83611323565b91506115c082611559565b604082019050919050565b600060208201905081810360008301526115e4816115a8565b9050919050565b7f486f75726c792077616765206973206c657373207468616e20776f726b65722760008201527f73206d696e696d756d2061636365707461626c65207761676500000000000000602082015250565b6000611647603983611323565b9150611652826115eb565b604082019050919050565b600060208201905081810360008301526116768161163a565b9050919050565b600061168882610e25565b915061169383610e25565b92508282039050818111156116ab576116aa611283565b5b92915050565b7f4e6f742074686520636f727265637420776f726b657200000000000000000000600082015250565b60006116e7601683611323565b91506116f2826116b1565b602082019050919050565b60006020820190508181036000830152611716816116da565b9050919050565b7f5461736b206973206e6f7420616c6c6f63617465640000000000000000000000600082015250565b6000611753601583611323565b915061175e8261171d565b602082019050919050565b6000602082019050818103600083015261178281611746565b9050919050565b600061179482610e25565b915061179f83610e25565b92508282026117ad81610e25565b915082820484148315176117c4576117c3611283565b5b509291505056fea2646970667358221220daa0096813f2812fb94e7feb9c875b4009cab4086114316147a4cc49c445d1b064736f6c63430008130033",
  "immutableReferences": {},
  "source": "// SPDX-License-Identifier: MIT\r\npragma solidity ^0.8.19;\r\n\r\ncontract TaskAllocation {\r\n    struct Worker {\r\n        uint availableHours;\r\n        uint expertiseLevel;\r\n        uint minHourlyWage;\r\n        address wallet;\r\n        bool isRegistered;\r\n    }\r\n\r\n    struct Task {\r\n        uint timeRequired;\r\n        uint expertiseLevel;\r\n        uint hourlyWage;\r\n        uint deadline;\r\n        bool isDivisible;\r\n        bool isAllocated;\r\n        address assignedWorker;\r\n    }\r\n\r\n    address public admin;\r\n    uint public totalTasks;\r\n    uint public totalWorkers;\r\n    mapping(uint => Worker) public workers;\r\n    mapping(uint => Task) public tasks;\r\n\r\n    event WorkerRegistered(uint workerId, address wallet);\r\n    event TaskAdded(uint taskId, uint timeRequired);\r\n    event TaskAllocated(uint taskId, address worker);\r\n\r\n    constructor() {\r\n        admin = msg.sender;\r\n    }\r\n\r\n    modifier onlyAdmin() {\r\n        require(msg.sender == admin, \"Only admin can call this function\");\r\n        _;\r\n    }\r\n\r\n    modifier onlyWorker(uint workerId) {\r\n        require(workers[workerId].wallet == msg.sender, \"Not the correct worker\");\r\n        _;\r\n    }\r\n\r\n    function registerWorker(uint _availableHours, uint _expertiseLevel, uint _minHourlyWage) public {\r\n        totalWorkers++;\r\n        workers[totalWorkers] = Worker({\r\n            availableHours: _availableHours,\r\n            expertiseLevel: _expertiseLevel,\r\n            minHourlyWage: _minHourlyWage,\r\n            wallet: msg.sender,\r\n            isRegistered: true\r\n        });\r\n\r\n        emit WorkerRegistered(totalWorkers, msg.sender);\r\n    }\r\n\r\n    function addTask(uint _timeRequired, uint _expertiseLevel, uint _hourlyWage, uint _deadline, bool _isDivisible) public onlyAdmin {\r\n        totalTasks++;\r\n        tasks[totalTasks] = Task({\r\n            timeRequired: _timeRequired,\r\n            expertiseLevel: _expertiseLevel,\r\n            hourlyWage: _hourlyWage,\r\n            deadline: _deadline,\r\n            isDivisible: _isDivisible,\r\n            isAllocated: false,\r\n            assignedWorker: address(0)\r\n        });\r\n\r\n        emit TaskAdded(totalTasks, _timeRequired);\r\n    }\r\n\r\n    function allocateTask(uint taskId, uint workerId) public onlyAdmin {\r\n        Task storage task = tasks[taskId];\r\n        Worker storage worker = workers[workerId];\r\n\r\n        require(!task.isAllocated, \"Task already allocated\");\r\n        require(worker.isRegistered, \"Worker is not registered\");\r\n        require(worker.availableHours >= task.timeRequired, \"Worker does not have enough available hours\");\r\n        require(worker.expertiseLevel >= task.expertiseLevel, \"Worker does not have required expertise level\");\r\n        require(task.hourlyWage >= worker.minHourlyWage, \"Hourly wage is less than worker's minimum acceptable wage\");\r\n\r\n        task.isAllocated = true;\r\n        task.assignedWorker = worker.wallet;\r\n\r\n        worker.availableHours -= task.timeRequired;\r\n\r\n        emit TaskAllocated(taskId, worker.wallet);\r\n    }\r\n\r\n    function completeTask(uint taskId) public onlyWorker(taskId) {\r\n        Task storage task = tasks[taskId];\r\n        require(task.isAllocated, \"Task is not allocated\");\r\n\r\n        uint payment = task.timeRequired * task.hourlyWage;\r\n        payable(task.assignedWorker).transfer(payment);\r\n    }\r\n\r\n    function getWorkerDetails(uint workerId) public view returns (Worker memory) {\r\n        return workers[workerId];\r\n    }\r\n\r\n    function getTaskDetails(uint taskId) public view returns (Task memory) {\r\n        return tasks[taskId];\r\n    }\r\n\r\n    receive() external payable {}\r\n\r\n    fallback() external payable {}\r\n}\r\n",
  "sourcePath": "C:\\Users\\shrey\\Dropbox\\PC\\Desktop\\takneek\\pclub ps 2\\contracts\\TaskAllocation.sol",
  "compiler": {
    "name": "solc",
    "version": "0.8.19+commit.7dd6d404.Emscripten.clang"
  },
  "schemaVersion": "3.4.16",
  "updatedAt": "2024-09-01T23:25:13.888Z",
  "networkType": "ethereum",
  "devdoc": {
    "kind": "dev",
    "methods": {},
    "version": 1
  },
  "userdoc": {
    "kind": "user",
    "methods": {},
    "version": 1
  }
}